{
  "contractName": "PotentiometerContract",
  "abi": [
    {
      "anonymous": false,
      "inputs": [
        {
          "indexed": false,
          "internalType": "int256",
          "name": "newValue",
          "type": "int256"
        }
      ],
      "name": "PotentiometerValueChanged",
      "type": "event"
    },
    {
      "inputs": [],
      "name": "potentiometerValue",
      "outputs": [
        {
          "internalType": "int256",
          "name": "",
          "type": "int256"
        }
      ],
      "stateMutability": "view",
      "type": "function"
    },
    {
      "inputs": [
        {
          "internalType": "int256",
          "name": "_value",
          "type": "int256"
        }
      ],
      "name": "updateValue",
      "outputs": [],
      "stateMutability": "nonpayable",
      "type": "function"
    },
    {
      "inputs": [],
      "name": "getValue",
      "outputs": [
        {
          "internalType": "int256",
          "name": "",
          "type": "int256"
        }
      ],
      "stateMutability": "view",
      "type": "function"
    }
  ],
  "bytecode": "0x6080604052348015600e575f5ffd5b506101a88061001c5f395ff3fe608060405234801561000f575f5ffd5b506004361061003f575f3560e01c806320965255146100435780634d362868146100615780638310b0531461007d575b5f5ffd5b61004b61009b565b6040516100589190610100565b60405180910390f35b61007b60048036038101906100769190610147565b6100a3565b005b6100856100e3565b6040516100929190610100565b60405180910390f35b5f5f54905090565b805f819055507fb3ec70414e715f8a3b14b03da188c68289864fbf6e063ea5c1dddbc46e14d237816040516100d89190610100565b60405180910390a150565b5f5481565b5f819050919050565b6100fa816100e8565b82525050565b5f6020820190506101135f8301846100f1565b92915050565b5f5ffd5b610126816100e8565b8114610130575f5ffd5b50565b5f813590506101418161011d565b92915050565b5f6020828403121561015c5761015b610119565b5b5f61016984828501610133565b9150509291505056fea2646970667358221220f619c2e8d80f3a24e18a89dec30f4672715d98656364cb46cc304dd13fc9b48c64736f6c634300081c0033",
  "immutableReferences": {},
  "source": "// SPDX-License-Identifier: MIT\r\npragma solidity ^0.8.21;\r\n\r\ncontract PotentiometerContract {\r\n    int public potentiometerValue;\r\n\r\n    event PotentiometerValueChanged(int newValue);\r\n\r\n    function updateValue(int _value) public {\r\n        potentiometerValue = _value;\r\n        emit PotentiometerValueChanged(_value);\r\n    }\r\n\r\n    function getValue() public view returns (int) {\r\n        return potentiometerValue;\r\n    }\r\n}\r\n",
  "sourcePath": "C:\\Users\\ulise\\Documents\\TS Telecomunicaciones\\2024\\Segundo Cuatrimestre\\Blockchain\\Proyecto Infura\\contracts\\PotentiometerContract.sol",
  "compiler": {
    "name": "solc",
    "version": "0.8.28+commit.7893614a.Emscripten.clang"
  },
  "schemaVersion": "3.4.16",
  "updatedAt": "2024-10-25T19:06:04.522Z",
  "devdoc": {
    "kind": "dev",
    "methods": {},
    "version": 1
  },
  "userdoc": {
    "kind": "user",
    "methods": {},
    "version": 1
  }
}